{
  "contractName": "TokenSwap",
  "abi": [
    {
      "inputs": [
        {
          "internalType": "address",
          "name": "_token1",
          "type": "address"
        },
        {
          "internalType": "address",
          "name": "_token2",
          "type": "address"
        }
      ],
      "stateMutability": "nonpayable",
      "type": "constructor"
    },
    {
      "anonymous": false,
      "inputs": [
        {
          "indexed": true,
          "internalType": "address",
          "name": "provider",
          "type": "address"
        },
        {
          "indexed": false,
          "internalType": "uint256",
          "name": "amount1",
          "type": "uint256"
        },
        {
          "indexed": false,
          "internalType": "uint256",
          "name": "amount2",
          "type": "uint256"
        }
      ],
      "name": "LiquidityAdded",
      "type": "event"
    },
    {
      "anonymous": false,
      "inputs": [
        {
          "indexed": true,
          "internalType": "address",
          "name": "swapper",
          "type": "address"
        },
        {
          "indexed": false,
          "internalType": "address",
          "name": "inputToken",
          "type": "address"
        },
        {
          "indexed": false,
          "internalType": "uint256",
          "name": "inputAmount",
          "type": "uint256"
        },
        {
          "indexed": false,
          "internalType": "uint256",
          "name": "outputAmount",
          "type": "uint256"
        }
      ],
      "name": "TokensSwapped",
      "type": "event"
    },
    {
      "inputs": [],
      "name": "reserve1",
      "outputs": [
        {
          "internalType": "uint256",
          "name": "",
          "type": "uint256"
        }
      ],
      "stateMutability": "view",
      "type": "function"
    },
    {
      "inputs": [],
      "name": "reserve2",
      "outputs": [
        {
          "internalType": "uint256",
          "name": "",
          "type": "uint256"
        }
      ],
      "stateMutability": "view",
      "type": "function"
    },
    {
      "inputs": [],
      "name": "token1",
      "outputs": [
        {
          "internalType": "address",
          "name": "",
          "type": "address"
        }
      ],
      "stateMutability": "view",
      "type": "function"
    },
    {
      "inputs": [],
      "name": "token2",
      "outputs": [
        {
          "internalType": "address",
          "name": "",
          "type": "address"
        }
      ],
      "stateMutability": "view",
      "type": "function"
    },
    {
      "inputs": [
        {
          "internalType": "uint256",
          "name": "_amount1",
          "type": "uint256"
        },
        {
          "internalType": "uint256",
          "name": "_amount2",
          "type": "uint256"
        }
      ],
      "name": "addLiquidity",
      "outputs": [],
      "stateMutability": "nonpayable",
      "type": "function"
    },
    {
      "inputs": [
        {
          "internalType": "uint256",
          "name": "_inputAmount",
          "type": "uint256"
        },
        {
          "internalType": "bool",
          "name": "_isToken1",
          "type": "bool"
        }
      ],
      "name": "getSwapAmount",
      "outputs": [
        {
          "internalType": "uint256",
          "name": "",
          "type": "uint256"
        }
      ],
      "stateMutability": "view",
      "type": "function"
    },
    {
      "inputs": [
        {
          "internalType": "uint256",
          "name": "_inputAmount",
          "type": "uint256"
        },
        {
          "internalType": "bool",
          "name": "_isToken1",
          "type": "bool"
        }
      ],
      "name": "swap",
      "outputs": [],
      "stateMutability": "nonpayable",
      "type": "function"
    },
    {
      "inputs": [],
      "name": "getReserves",
      "outputs": [
        {
          "internalType": "uint256",
          "name": "",
          "type": "uint256"
        },
        {
          "internalType": "uint256",
          "name": "",
          "type": "uint256"
        }
      ],
      "stateMutability": "view",
      "type": "function"
    }
  ],
  "bytecode": "0x608060405234801561000f575f80fd5b5060405162000e7138038062000e7183398181016040528101906100339190610117565b815f806101000a81548173ffffffffffffffffffffffffffffffffffffffff021916908373ffffffffffffffffffffffffffffffffffffffff1602179055508060015f6101000a81548173ffffffffffffffffffffffffffffffffffffffff021916908373ffffffffffffffffffffffffffffffffffffffff1602179055505050610155565b5f80fd5b5f73ffffffffffffffffffffffffffffffffffffffff82169050919050565b5f6100e6826100bd565b9050919050565b6100f6816100dc565b8114610100575f80fd5b50565b5f81519050610111816100ed565b92915050565b5f806040838503121561012d5761012c6100b9565b5b5f61013a85828601610103565b925050602061014b85828601610103565b9150509250929050565b610d0e80620001635f395ff3fe608060405234801561000f575f80fd5b5060043610610086575f3560e01c80635a76f25e116100595780635a76f25e146101135780635c0b9a2b146101315780639cd441da1461014f578063d21220a71461016b57610086565b80630902f1ac1461008a57806325be124e146100a957806328db42ad146100c75780632aea6605146100f7575b5f80fd5b610092610189565b6040516100a0929190610880565b60405180910390f35b6100b1610199565b6040516100be91906108e6565b60405180910390f35b6100e160048036038101906100dc9190610962565b6101be565b6040516100ee91906109a0565b60405180910390f35b610111600480360381019061010c9190610962565b61025a565b005b61011b61062c565b60405161012891906109a0565b60405180910390f35b610139610632565b60405161014691906109a0565b60405180910390f35b610169600480360381019061016491906109b9565b610638565b005b610173610845565b60405161018091906108e6565b60405180910390f35b5f80600254600354915091509091565b60015f9054906101000a900473ffffffffffffffffffffffffffffffffffffffff1681565b5f808311610201576040517f08c379a00000000000000000000000000000000000000000000000000000000081526004016101f890610a51565b60405180910390fd5b5f8261020f57600354610213565b6002545b90505f8361022357600254610227565b6003545b90505f85836102369190610a9c565b82876102429190610acf565b61024c9190610b3d565b905080935050505092915050565b5f821161029c576040517f08c379a000000000000000000000000000000000000000000000000000000000815260040161029390610a51565b60405180910390fd5b5f6102a783836101be565b9050811561041e575f8054906101000a900473ffffffffffffffffffffffffffffffffffffffff1673ffffffffffffffffffffffffffffffffffffffff166323b872dd3330866040518463ffffffff1660e01b815260040161030b93929190610b6d565b6020604051808303815f875af1158015610327573d5f803e3d5ffd5b505050506040513d601f19601f8201168201806040525081019061034b9190610bb6565b5060015f9054906101000a900473ffffffffffffffffffffffffffffffffffffffff1673ffffffffffffffffffffffffffffffffffffffff1663a9059cbb33836040518363ffffffff1660e01b81526004016103a8929190610be1565b6020604051808303815f875af11580156103c4573d5f803e3d5ffd5b505050506040513d601f19601f820116820180604052508101906103e89190610bb6565b508260025f8282546103fa9190610a9c565b925050819055508060035f8282546104129190610c08565b92505081905550610589565b60015f9054906101000a900473ffffffffffffffffffffffffffffffffffffffff1673ffffffffffffffffffffffffffffffffffffffff166323b872dd3330866040518463ffffffff1660e01b815260040161047c93929190610b6d565b6020604051808303815f875af1158015610498573d5f803e3d5ffd5b505050506040513d601f19601f820116820180604052508101906104bc9190610bb6565b505f8054906101000a900473ffffffffffffffffffffffffffffffffffffffff1673ffffffffffffffffffffffffffffffffffffffff1663a9059cbb33836040518363ffffffff1660e01b8152600401610517929190610be1565b6020604051808303815f875af1158015610533573d5f803e3d5ffd5b505050506040513d601f19601f820116820180604052508101906105579190610bb6565b508260035f8282546105699190610a9c565b925050819055508060025f8282546105819190610c08565b925050819055505b3373ffffffffffffffffffffffffffffffffffffffff167f25f1d03755df23c30e25db2dbd3891e31ce084bdfbfc46f9fe5e446ee5f9b2d4836105ed5760015f9054906101000a900473ffffffffffffffffffffffffffffffffffffffff1661060e565b5f8054906101000a900473ffffffffffffffffffffffffffffffffffffffff165b858460405161061f93929190610c3b565b60405180910390a2505050565b60025481565b60035481565b5f8211801561064657505f81115b610685576040517f08c379a000000000000000000000000000000000000000000000000000000000815260040161067c90610cba565b60405180910390fd5b5f8054906101000a900473ffffffffffffffffffffffffffffffffffffffff1673ffffffffffffffffffffffffffffffffffffffff166323b872dd3330856040518463ffffffff1660e01b81526004016106e193929190610b6d565b6020604051808303815f875af11580156106fd573d5f803e3d5ffd5b505050506040513d601f19601f820116820180604052508101906107219190610bb6565b5060015f9054906101000a900473ffffffffffffffffffffffffffffffffffffffff1673ffffffffffffffffffffffffffffffffffffffff166323b872dd3330846040518463ffffffff1660e01b815260040161078093929190610b6d565b6020604051808303815f875af115801561079c573d5f803e3d5ffd5b505050506040513d601f19601f820116820180604052508101906107c09190610bb6565b508160025f8282546107d29190610a9c565b925050819055508060035f8282546107ea9190610a9c565b925050819055503373ffffffffffffffffffffffffffffffffffffffff167fac1d76749e5447b7b16f5ab61447e1bd502f3bb4807af3b28e620d1700a6ee458383604051610839929190610880565b60405180910390a25050565b5f8054906101000a900473ffffffffffffffffffffffffffffffffffffffff1681565b5f819050919050565b61087a81610868565b82525050565b5f6040820190506108935f830185610871565b6108a06020830184610871565b9392505050565b5f73ffffffffffffffffffffffffffffffffffffffff82169050919050565b5f6108d0826108a7565b9050919050565b6108e0816108c6565b82525050565b5f6020820190506108f95f8301846108d7565b92915050565b5f80fd5b61090c81610868565b8114610916575f80fd5b50565b5f8135905061092781610903565b92915050565b5f8115159050919050565b6109418161092d565b811461094b575f80fd5b50565b5f8135905061095c81610938565b92915050565b5f8060408385031215610978576109776108ff565b5b5f61098585828601610919565b92505060206109968582860161094e565b9150509250929050565b5f6020820190506109b35f830184610871565b92915050565b5f80604083850312156109cf576109ce6108ff565b5b5f6109dc85828601610919565b92505060206109ed85828601610919565b9150509250929050565b5f82825260208201905092915050565b7f496e76616c696420696e70757420616d6f756e740000000000000000000000005f82015250565b5f610a3b6014836109f7565b9150610a4682610a07565b602082019050919050565b5f6020820190508181035f830152610a6881610a2f565b9050919050565b7f4e487b71000000000000000000000000000000000000000000000000000000005f52601160045260245ffd5b5f610aa682610868565b9150610ab183610868565b9250828201905080821115610ac957610ac8610a6f565b5b92915050565b5f610ad982610868565b9150610ae483610868565b9250828202610af281610868565b91508282048414831517610b0957610b08610a6f565b5b5092915050565b7f4e487b71000000000000000000000000000000000000000000000000000000005f52601260045260245ffd5b5f610b4782610868565b9150610b5283610868565b925082610b6257610b61610b10565b5b828204905092915050565b5f606082019050610b805f8301866108d7565b610b8d60208301856108d7565b610b9a6040830184610871565b949350505050565b5f81519050610bb081610938565b92915050565b5f60208284031215610bcb57610bca6108ff565b5b5f610bd884828501610ba2565b91505092915050565b5f604082019050610bf45f8301856108d7565b610c016020830184610871565b9392505050565b5f610c1282610868565b9150610c1d83610868565b9250828203905081811115610c3557610c34610a6f565b5b92915050565b5f606082019050610c4e5f8301866108d7565b610c5b6020830185610871565b610c686040830184610871565b949350505050565b7f496e76616c696420616d6f756e740000000000000000000000000000000000005f82015250565b5f610ca4600e836109f7565b9150610caf82610c70565b602082019050919050565b5f6020820190508181035f830152610cd181610c98565b905091905056fea26469706673582212201f5423be6c995f96f2dfa262c4bc3ae72bfafa9727d5965e7961e060fc6f5d9e64736f6c63430008150033",
  "immutableReferences": {},
  "source": "// SPDX-License-Identifier: MIT\npragma solidity ^0.8.0;\n\ninterface IERC20 {\n    function totalSupply() external view returns (uint256);\n    function balanceOf(address account) external view returns (uint256);\n    function transfer(address recipient, uint256 amount) external returns (bool);\n    function allowance(address owner, address spender) external view returns (uint256);\n    function approve(address spender, uint256 amount) external returns (bool);\n    function transferFrom(address sender, address recipient, uint256 amount) external returns (bool);\n}\n\ncontract TokenSwap {\n    address public token1;\n    address public token2;\n    uint256 public reserve1;\n    uint256 public reserve2;\n\n    event LiquidityAdded(address indexed provider, uint256 amount1, uint256 amount2);\n    event TokensSwapped(address indexed swapper, address inputToken, uint256 inputAmount, uint256 outputAmount);\n    \n    constructor(address _token1, address _token2) {\n        token1 = _token1;\n        token2 = _token2;\n    }\n\n    function addLiquidity(uint256 _amount1, uint256 _amount2) external {\n        require(_amount1 > 0 && _amount2 > 0, \"Invalid amount\");\n\n        IERC20(token1).transferFrom(msg.sender, address(this), _amount1);\n        IERC20(token2).transferFrom(msg.sender, address(this), _amount2);\n\n        reserve1 += _amount1;\n        reserve2 += _amount2;\n\n        emit LiquidityAdded(msg.sender, _amount1, _amount2);\n    }\n\n    function getSwapAmount(uint256 _inputAmount, bool _isToken1) public view returns (uint256) {\n        require(_inputAmount > 0, \"Invalid input amount\");\n\n        uint256 inputReserve = _isToken1 ? reserve1 : reserve2;\n        uint256 outputReserve = _isToken1 ? reserve2 : reserve1;\n\n        uint256 outputAmount = (_inputAmount * outputReserve) / (inputReserve + _inputAmount);\n        return outputAmount;\n    }\n\n    function swap(uint256 _inputAmount, bool _isToken1) external {\n        require(_inputAmount > 0, \"Invalid input amount\");\n\n        uint256 outputAmount = getSwapAmount(_inputAmount, _isToken1);\n\n        if (_isToken1) {\n            IERC20(token1).transferFrom(msg.sender, address(this), _inputAmount);\n            IERC20(token2).transfer(msg.sender, outputAmount);\n            reserve1 += _inputAmount;\n            reserve2 -= outputAmount;\n        } else {\n            IERC20(token2).transferFrom(msg.sender, address(this), _inputAmount);\n            IERC20(token1).transfer(msg.sender, outputAmount);\n            reserve2 += _inputAmount;\n            reserve1 -= outputAmount;\n        }\n\n        emit TokensSwapped(msg.sender, _isToken1 ? token1 : token2, _inputAmount, outputAmount);\n    }\n\n    function getReserves() external view returns (uint256, uint256) {\n        return (reserve1, reserve2);\n    }\n}\n\n",
  "sourcePath": "/home/saikoushik/token-swap-platform/contracts/TokenSwap.sol",
  "compiler": {
    "name": "solc",
    "version": "0.8.21+commit.d9974bed.Emscripten.clang"
  },
  "schemaVersion": "3.4.16",
  "updatedAt": "2024-09-03T12:37:30.267Z",
  "devdoc": {
    "kind": "dev",
    "methods": {},
    "version": 1
  },
  "userdoc": {
    "kind": "user",
    "methods": {},
    "version": 1
  }
}